{
  "_format": "hh-sol-artifact-1",
  "contractName": "GitIssues",
  "sourceName": "contracts/repo_facets/GitIssues.sol",
  "abi": [
    {
      "anonymous": false,
      "inputs": [
        {
          "indexed": false,
          "internalType": "string",
          "name": "Cid",
          "type": "string"
        }
      ],
      "name": "NewIssue",
      "type": "event"
    },
    {
      "inputs": [
        {
          "internalType": "bytes32",
          "name": "issueHash",
          "type": "bytes32"
        },
        {
          "internalType": "string",
          "name": "issueAnswerCid",
          "type": "string"
        }
      ],
      "name": "appendAnswerToIssue",
      "outputs": [],
      "stateMutability": "payable",
      "type": "function"
    },
    {
      "inputs": [],
      "name": "getAllIssues",
      "outputs": [
        {
          "internalType": "bytes32[]",
          "name": "",
          "type": "bytes32[]"
        }
      ],
      "stateMutability": "view",
      "type": "function"
    },
    {
      "inputs": [
        {
          "internalType": "bytes32",
          "name": "userCidHash",
          "type": "bytes32"
        }
      ],
      "name": "getIssue",
      "outputs": [
        {
          "components": [
            {
              "internalType": "bool",
              "name": "isActive",
              "type": "bool"
            },
            {
              "internalType": "enum GitIssues.IssueState",
              "name": "state",
              "type": "uint8"
            },
            {
              "internalType": "string",
              "name": "cid",
              "type": "string"
            },
            {
              "components": [
                {
                  "internalType": "string",
                  "name": "cid",
                  "type": "string"
                },
                {
                  "internalType": "address",
                  "name": "author",
                  "type": "address"
                }
              ],
              "internalType": "struct GitIssues.IssueText[]",
              "name": "issueAnswers",
              "type": "tuple[]"
            },
            {
              "internalType": "uint256",
              "name": "bounty",
              "type": "uint256"
            },
            {
              "internalType": "address",
              "name": "opener",
              "type": "address"
            },
            {
              "internalType": "address",
              "name": "resolver",
              "type": "address"
            },
            {
              "internalType": "uint256",
              "name": "resolvedBlockNumber",
              "type": "uint256"
            },
            {
              "internalType": "bool",
              "name": "resolved",
              "type": "bool"
            },
            {
              "internalType": "uint256",
              "name": "placeInList",
              "type": "uint256"
            },
            {
              "internalType": "uint256",
              "name": "issueNumber",
              "type": "uint256"
            }
          ],
          "internalType": "struct GitIssues.Issue",
          "name": "",
          "type": "tuple"
        }
      ],
      "stateMutability": "view",
      "type": "function"
    },
    {
      "inputs": [
        {
          "internalType": "address",
          "name": "opener",
          "type": "address"
        },
        {
          "internalType": "string",
          "name": "cid",
          "type": "string"
        }
      ],
      "name": "getUserCidHash",
      "outputs": [
        {
          "internalType": "bytes32",
          "name": "",
          "type": "bytes32"
        }
      ],
      "stateMutability": "pure",
      "type": "function"
    },
    {
      "inputs": [
        {
          "internalType": "string",
          "name": "issueCid",
          "type": "string"
        }
      ],
      "name": "openIssue",
      "outputs": [],
      "stateMutability": "payable",
      "type": "function"
    },
    {
      "inputs": [
        {
          "internalType": "bytes32",
          "name": "issueHash",
          "type": "bytes32"
        },
        {
          "internalType": "enum GitIssues.IssueState",
          "name": "state",
          "type": "uint8"
        }
      ],
      "name": "updateIssueState",
      "outputs": [],
      "stateMutability": "nonpayable",
      "type": "function"
    }
  ],
  "bytecode": "0x608060405234801561001057600080fd5b506126f0806100206000396000f3fe6080604052600436106100555760003560e01c80630b1585b41461005a5780634b3cf20014610076578063b04c92641461009f578063d3a41fda146100bb578063f4fcffa4146100f8578063f7e0816314610135575b600080fd5b610074600480360381019061006f9190611d59565b610160565b005b34801561008257600080fd5b5061009d60048036038101906100989190611d1d565b610483565b005b6100b960048036038101906100b49190611db1565b610ff4565b005b3480156100c757600080fd5b506100e260048036038101906100dd9190611ca0565b611397565b6040516100ef9190612372565b60405180910390f35b34801561010457600080fd5b5061011f600480360381019061011a9190611cf4565b6113ca565b60405161012c919061246f565b60405180910390f35b34801561014157600080fd5b5061014a61179c565b6040516101579190612350565b60405180910390f35b600061016a611803565b905080600001600085815260200190815260200160002060000160009054906101000a900460ff166101d1576040517f08c379a00000000000000000000000000000000000000000000000000000000081526004016101c89061244f565b60405180910390fd5b806000016000858152602001908152602001600020600201604051806040016040528085858080601f016020809104026020016040519081016040528093929190818152602001838380828437600081840152601f19601f8201169050808301925050505050505081526020013373ffffffffffffffffffffffffffffffffffffffff168152509080600181540180825580915050600190039060005260206000209060020201600090919091909150600082015181600001908051906020019061029d92919061185d565b5060208201518160010160006101000a81548173ffffffffffffffffffffffffffffffffffffffff021916908373ffffffffffffffffffffffffffffffffffffffff1602179055505050600160028111156102f457fe5b81600001600086815260200190815260200160002060000160019054906101000a900460ff16600281111561032557fe5b14156103bb57600081600001600086815260200190815260200160002060000160016101000a81548160ff0219169083600281111561036057fe5b021790555060003411156103b6573373ffffffffffffffffffffffffffffffffffffffff166108fc349081150290604051600060405180830381858888f193505050501580156103b4573d6000803e3d6000fd5b505b61047d565b600034111561047c57600060028111156103d157fe5b81600001600086815260200190815260200160002060000160019054906101000a900460ff16600281111561040257fe5b141561043357348160000160008681526020019081526020016000206003016000828254019250508190555061047b565b3373ffffffffffffffffffffffffffffffffffffffff166108fc349081150290604051600060405180830381858888f19350505050158015610479573d6000803e3d6000fd5b505b5b5b50505050565b600061048d611803565b905080600001600084815260200190815260200160002060000160009054906101000a900460ff166104f4576040517f08c379a00000000000000000000000000000000000000000000000000000000081526004016104eb9061244f565b60405180910390fd5b6001600281111561050157fe5b82600281111561050d57fe5b1415610cd2576000600281111561052057fe5b81600001600085815260200190815260200160002060000160019054906101000a900460ff16600281111561055157fe5b1480156105a3575060008160000160008581526020019081526020016000206003015414806105a2575080600001600084815260200190815260200160002060070160009054906101000a900460ff165b5b1561072a5760006105b2611830565b905081600001600085815260200190815260200160002060040160009054906101000a900473ffffffffffffffffffffffffffffffffffffffff1673ffffffffffffffffffffffffffffffffffffffff163373ffffffffffffffffffffffffffffffffffffffff16148061067557508060000160009054906101000a900473ffffffffffffffffffffffffffffffffffffffff1673ffffffffffffffffffffffffffffffffffffffff163373ffffffffffffffffffffffffffffffffffffffff16145b156106e9578282600001600086815260200190815260200160002060000160016101000a81548160ff021916908360028111156106ae57fe5b0217905550600182600001600086815260200190815260200160002060070160006101000a81548160ff021916908315150217905550610724565b6040517f08c379a000000000000000000000000000000000000000000000000000000000815260040161071b9061240f565b60405180910390fd5b50610ccd565b60028081111561073657fe5b81600001600085815260200190815260200160002060000160019054906101000a900460ff16600281111561076757fe5b1480156107d757503373ffffffffffffffffffffffffffffffffffffffff1681600001600085815260200190815260200160002060040160009054906101000a900473ffffffffffffffffffffffffffffffffffffffff1673ffffffffffffffffffffffffffffffffffffffff16145b15610a00578181600001600085815260200190815260200160002060000160016101000a81548160ff0219169083600281111561081057fe5b0217905550600181600001600085815260200190815260200160002060070160006101000a81548160ff0219169083151502179055506000610850611830565b9050600082600001600086815260200190815260200160002060030154905060008260010160009054906101000a900473ffffffffffffffffffffffffffffffffffffffff1673ffffffffffffffffffffffffffffffffffffffff16606483816108b657fe5b04615014906040516108c79061230b565b600060405180830381858888f193505050503d8060008114610905576040519150601f19603f3d011682016040523d82523d6000602084013e61090a565b606091505b505090508061094e576040517f08c379a0000000000000000000000000000000000000000000000000000000008152600401610945906123af565b60405180910390fd5b83600001600087815260200190815260200160002060050160009054906101000a900473ffffffffffffffffffffffffffffffffffffffff1673ffffffffffffffffffffffffffffffffffffffff166108fc606460638502816109ad57fe5b049081150290604051600060405180830381858888f193505050501580156109d9573d6000803e3d6000fd5b50600084600001600088815260200190815260200160002060030181905550505050610ccc565b600280811115610a0c57fe5b81600001600085815260200190815260200160002060000160019054906101000a900460ff166002811115610a3d57fe5b148015610a67575062093a8081600001600085815260200190815260200160002060060154430310155b15610c90578181600001600085815260200190815260200160002060000160016101000a81548160ff02191690836002811115610aa057fe5b0217905550600181600001600085815260200190815260200160002060070160006101000a81548160ff0219169083151502179055506000610ae0611830565b9050600082600001600086815260200190815260200160002060030154905060008260010160009054906101000a900473ffffffffffffffffffffffffffffffffffffffff1673ffffffffffffffffffffffffffffffffffffffff1660648381610b4657fe5b04614e2090604051610b579061230b565b600060405180830381858888f193505050503d8060008114610b95576040519150601f19603f3d011682016040523d82523d6000602084013e610b9a565b606091505b5050905080610bde576040517f08c379a0000000000000000000000000000000000000000000000000000000008152600401610bd5906123af565b60405180910390fd5b83600001600087815260200190815260200160002060050160009054906101000a900473ffffffffffffffffffffffffffffffffffffffff1673ffffffffffffffffffffffffffffffffffffffff166108fc60646063850281610c3d57fe5b049081150290604051600060405180830381858888f19350505050158015610c69573d6000803e3d6000fd5b50600084600001600088815260200190815260200160002060030181905550505050610ccb565b6040517f08c379a0000000000000000000000000000000000000000000000000000000008152600401610cc2906123ef565b60405180910390fd5b5b5b610fef565b600280811115610cde57fe5b826002811115610cea57fe5b1415610ee1576000610cfa611830565b905060006002811115610d0957fe5b82600001600086815260200190815260200160002060000160019054906101000a900460ff166002811115610d3a57fe5b148015610d5f5750600082600001600086815260200190815260200160002060030154115b8015610d8e575081600001600085815260200190815260200160002060070160009054906101000a900460ff16155b8015610de957508060000160009054906101000a900473ffffffffffffffffffffffffffffffffffffffff1673ffffffffffffffffffffffffffffffffffffffff163373ffffffffffffffffffffffffffffffffffffffff16145b15610ea0578282600001600086815260200190815260200160002060000160016101000a81548160ff02191690836002811115610e2257fe5b02179055503382600001600086815260200190815260200160002060050160006101000a81548173ffffffffffffffffffffffffffffffffffffffff021916908373ffffffffffffffffffffffffffffffffffffffff1602179055504382600001600086815260200190815260200160002060060181905550610edb565b6040517f08c379a0000000000000000000000000000000000000000000000000000000008152600401610ed2906123cf565b60405180910390fd5b50610fee565b60006002811115610eee57fe5b826002811115610efa57fe5b1415610fed57600280811115610f0c57fe5b81600001600085815260200190815260200160002060000160019054906101000a900460ff166002811115610f3d57fe5b148015610fad575080600001600084815260200190815260200160002060040160009054906101000a900473ffffffffffffffffffffffffffffffffffffffff1673ffffffffffffffffffffffffffffffffffffffff163373ffffffffffffffffffffffffffffffffffffffff16145b15610fec578181600001600085815260200190815260200160002060000160016101000a81548160ff02191690836002811115610fe657fe5b02179055505b5b5b5b505050565b6000610ffe611803565b9050600061100c3384611397565b9050600082600001600083815260200190815260200160002090508060000160009054906101000a900460ff166113565760018160000160006101000a81548160ff02191690831515021790555060008160000160016101000a81548160ff0219169083600281111561107b57fe5b02179055508381600101908051906020019061109892919061185d565b50348160030181905550338160040160006101000a81548173ffffffffffffffffffffffffffffffffffffffff021916908373ffffffffffffffffffffffffffffffffffffffff1602179055508260010180549050816008018190555060008081548092919060010191905055506000548160090181905550808360000160008481526020019081526020016000206000820160009054906101000a900460ff168160000160006101000a81548160ff0219169083151502179055506000820160019054906101000a900460ff168160000160016101000a81548160ff0219169083600281111561118557fe5b0217905550600182018160010190805460018160011615610100020316600290046111b19291906118eb565b5060028201816002019080546111c8929190611980565b50600382015481600301556004820160009054906101000a900473ffffffffffffffffffffffffffffffffffffffff168160040160006101000a81548173ffffffffffffffffffffffffffffffffffffffff021916908373ffffffffffffffffffffffffffffffffffffffff1602179055506005820160009054906101000a900473ffffffffffffffffffffffffffffffffffffffff168160050160006101000a81548173ffffffffffffffffffffffffffffffffffffffff021916908373ffffffffffffffffffffffffffffffffffffffff160217905550600682015481600601556007820160009054906101000a900460ff168160070160006101000a81548160ff0219169083151502179055506008820154816008015560098201548160090155905050826001018290806001815401808255809150506001900390600052602060002001600090919091909150557fc9f572debbbe00e80d07caaa15a1df7bd3c749ff4659a7ab73e147dade4630f284604051611349919061238d565b60405180910390a1611391565b6040517f08c379a00000000000000000000000000000000000000000000000000000000081526004016113889061242f565b60405180910390fd5b50505050565b600082826040516020016113ac929190612320565b60405160208183030381529060405280519060200120905092915050565b6113d2611a67565b60006113dc611803565b905080600001600084815260200190815260200160002060000160009054906101000a900460ff16611443576040517f08c379a000000000000000000000000000000000000000000000000000000000815260040161143a9061244f565b60405180910390fd5b806000016000848152602001908152602001600020604051806101600160405290816000820160009054906101000a900460ff161515151581526020016000820160019054906101000a900460ff16600281111561149d57fe5b60028111156114a857fe5b8152602001600182018054600181600116156101000203166002900480601f0160208091040260200160405190810160405280929190818152602001828054600181600116156101000203166002900480156115455780601f1061151a57610100808354040283529160200191611545565b820191906000526020600020905b81548152906001019060200180831161152857829003601f168201915b5050505050815260200160028201805480602002602001604051908101604052809291908181526020016000905b8282101561169d5783829060005260206000209060020201604051806040016040529081600082018054600181600116156101000203166002900480601f01602080910402602001604051908101604052809291908181526020018280546001816001161561010002031660029004801561162f5780601f106116045761010080835404028352916020019161162f565b820191906000526020600020905b81548152906001019060200180831161161257829003601f168201915b505050505081526020016001820160009054906101000a900473ffffffffffffffffffffffffffffffffffffffff1673ffffffffffffffffffffffffffffffffffffffff1673ffffffffffffffffffffffffffffffffffffffff168152505081526020019060010190611573565b505050508152602001600382015481526020016004820160009054906101000a900473ffffffffffffffffffffffffffffffffffffffff1673ffffffffffffffffffffffffffffffffffffffff1673ffffffffffffffffffffffffffffffffffffffff1681526020016005820160009054906101000a900473ffffffffffffffffffffffffffffffffffffffff1673ffffffffffffffffffffffffffffffffffffffff1673ffffffffffffffffffffffffffffffffffffffff168152602001600682015481526020016007820160009054906101000a900460ff1615151515815260200160088201548152602001600982015481525050915050919050565b606060006117a8611803565b9050806001018054806020026020016040519081016040528092919081815260200182805480156117f857602002820191906000526020600020905b8154815260200190600101908083116117e4575b505050505091505090565b6000807fc4447f770f59a8052de8b8718ba780ff420b97521bfe0337fa233307d3e5c96d90508091505090565b6000807fcda474466355d557cbe45e4216caf1702767769836ab9be7c9c775dafc95a0b090508091505090565b828054600181600116156101000203166002900490600052602060002090601f01602090048101928261189357600085556118da565b82601f106118ac57805160ff19168380011785556118da565b828001600101855582156118da579182015b828111156118d95782518255916020019190600101906118be565b5b5090506118e79190611afc565b5090565b828054600181600116156101000203166002900490600052602060002090601f016020900481019282611921576000855561196f565b82601f10611932578054855561196f565b8280016001018555821561196f57600052602060002091601f016020900482015b8281111561196e578254825591600101919060010190611953565b5b50905061197c9190611afc565b5090565b828054828255906000526020600020906002028101928215611a565760005260206000209160020282015b82811115611a55578282600082018160000190805460018160011615610100020316600290046119dc9291906118eb565b506001820160009054906101000a900473ffffffffffffffffffffffffffffffffffffffff168160010160006101000a81548173ffffffffffffffffffffffffffffffffffffffff021916908373ffffffffffffffffffffffffffffffffffffffff1602179055505050916002019190600201906119ab565b5b509050611a639190611b19565b5090565b60405180610160016040528060001515815260200160006002811115611a8957fe5b8152602001606081526020016060815260200160008152602001600073ffffffffffffffffffffffffffffffffffffffff168152602001600073ffffffffffffffffffffffffffffffffffffffff1681526020016000815260200160001515815260200160008152602001600081525090565b5b80821115611b15576000816000905550600101611afd565b5090565b5b80821115611b635760008082016000611b339190611b67565b6001820160006101000a81549073ffffffffffffffffffffffffffffffffffffffff021916905550600201611b1a565b5090565b50805460018160011615610100020316600290046000825580601f10611b8d5750611bac565b601f016020900490600052602060002090810190611bab9190611afc565b5b50565b6000611bc2611bbd846124c2565b612491565b905082815260208101848484011115611bda57600080fd5b611be5848285612613565b509392505050565b600081359050611bfc8161267c565b92915050565b600081359050611c1181612693565b92915050565b600081359050611c26816126aa565b92915050565b60008083601f840112611c3e57600080fd5b8235905067ffffffffffffffff811115611c5757600080fd5b602083019150836001820283011115611c6f57600080fd5b9250929050565b600082601f830112611c8757600080fd5b8135611c97848260208601611baf565b91505092915050565b60008060408385031215611cb357600080fd5b6000611cc185828601611bed565b925050602083013567ffffffffffffffff811115611cde57600080fd5b611cea85828601611c76565b9150509250929050565b600060208284031215611d0657600080fd5b6000611d1484828501611c02565b91505092915050565b60008060408385031215611d3057600080fd5b6000611d3e85828601611c02565b9250506020611d4f85828601611c17565b9150509250929050565b600080600060408486031215611d6e57600080fd5b6000611d7c86828701611c02565b935050602084013567ffffffffffffffff811115611d9957600080fd5b611da586828701611c2c565b92509250509250925092565b600060208284031215611dc357600080fd5b600082013567ffffffffffffffff811115611ddd57600080fd5b611de984828501611c76565b91505092915050565b6000611dfe8383611f1e565b60208301905092915050565b6000611e1683836121c9565b905092915050565b611e278161259c565b82525050565b611e368161259c565b82525050565b6000611e4782612512565b611e51818561254d565b9350611e5c836124f2565b8060005b83811015611e8d578151611e748882611df2565b9750611e7f83612533565b925050600181019050611e60565b5085935050505092915050565b6000611ea58261251d565b611eaf818561255e565b935083602082028501611ec185612502565b8060005b85811015611efd5784840389528151611ede8582611e0a565b9450611ee983612540565b925060208a01995050600181019050611ec5565b50829750879550505050505092915050565b611f18816125ae565b82525050565b611f27816125ba565b82525050565b611f36816125ba565b82525050565b611f4581612601565b82525050565b6000611f5682612528565b611f60818561257a565b9350611f70818560208601612622565b611f7981612657565b840191505092915050565b6000611f8f82612528565b611f99818561258b565b9350611fa9818560208601612622565b611fb281612657565b840191505092915050565b6000611fca60228361258b565b91507f5761736e27742061626c6520746f206d6f76652074697020746f20666163746f60008301527f72790000000000000000000000000000000000000000000000000000000000006020830152604082019050919050565b600061203060178361258b565b91507f43616e2774207265736f6c7665207468652069737375650000000000000000006000830152602082019050919050565b600061207060158361258b565b91507f43616e277420636c6f73652074686520697373756500000000000000000000006000830152602082019050919050565b60006120b060318361258b565b91507f596f7520646f6e2774206861766520746865207065726d697373696f6e20746f60008301527f20636c6f736520746869732069737375650000000000000000000000000000006020830152604082019050919050565b600061211660198361258b565b91507f4f70656e2069737375652065786973747320616c7265616479000000000000006000830152602082019050919050565b600061215660008361256f565b9150600082019050919050565b600061217060238361258b565b91507f4973737565207769746820676976656e2063696420646f6573206e6f7420657860008301527f69737400000000000000000000000000000000000000000000000000000000006020830152604082019050919050565b600060408301600083015184820360008601526121e68282611f4b565b91505060208301516121fb6020860182611e1e565b508091505092915050565b60006101608301600083015161221f6000860182611f0f565b5060208301516122326020860182611f3c565b506040830151848203604086015261224a8282611f4b565b915050606083015184820360608601526122648282611e9a565b915050608083015161227960808601826122fc565b5060a083015161228c60a0860182611e1e565b5060c083015161229f60c0860182611e1e565b5060e08301516122b260e08601826122fc565b506101008301516122c7610100860182611f0f565b506101208301516122dc6101208601826122fc565b506101408301516122f16101408601826122fc565b508091505092915050565b612305816125f7565b82525050565b600061231682612149565b9150819050919050565b60006040820190506123356000830185611e2d565b81810360208301526123478184611f84565b90509392505050565b6000602082019050818103600083015261236a8184611e3c565b905092915050565b60006020820190506123876000830184611f2d565b92915050565b600060208201905081810360008301526123a78184611f84565b905092915050565b600060208201905081810360008301526123c881611fbd565b9050919050565b600060208201905081810360008301526123e881612023565b9050919050565b6000602082019050818103600083015261240881612063565b9050919050565b60006020820190508181036000830152612428816120a3565b9050919050565b6000602082019050818103600083015261244881612109565b9050919050565b6000602082019050818103600083015261246881612163565b9050919050565b600060208201905081810360008301526124898184612206565b905092915050565b6000604051905081810181811067ffffffffffffffff821117156124b8576124b7612655565b5b8060405250919050565b600067ffffffffffffffff8211156124dd576124dc612655565b5b601f19601f8301169050602081019050919050565b6000819050602082019050919050565b6000819050602082019050919050565b600081519050919050565b600081519050919050565b600081519050919050565b6000602082019050919050565b6000602082019050919050565b600082825260208201905092915050565b600082825260208201905092915050565b600081905092915050565b600082825260208201905092915050565b600082825260208201905092915050565b60006125a7826125d7565b9050919050565b60008115159050919050565b6000819050919050565b60008190506125d282612668565b919050565b600073ffffffffffffffffffffffffffffffffffffffff82169050919050565b6000819050919050565b600061260c826125c4565b9050919050565b82818337600083830152505050565b60005b83811015612640578082015181840152602081019050612625565b8381111561264f576000848401525b50505050565bfe5b6000601f19601f8301169050919050565b6003811061267957612678612655565b5b50565b6126858161259c565b811461269057600080fd5b50565b61269c816125ba565b81146126a757600080fd5b50565b600381106126b757600080fd5b5056fea264697066735822122096413e87f7330f82c3ece4f23fc0489037ae80f9c9aef0f9671508d7474740de64736f6c63430007060033",
  "linkReferences": {},
  "deployedLinkReferences": {}
}