{
  "_format": "hh-sol-artifact-1",
  "contractName": "GitRepositoryManagement",
  "sourceName": "contracts/repo_facets/GitRepositoryManagement.sol",
  "abi": [
    {
      "inputs": [],
      "name": "getRepositoryInfo",
      "outputs": [
        {
          "internalType": "address",
          "name": "contractOwner",
          "type": "address"
        },
        {
          "internalType": "contract GitFactory",
          "name": "factory",
          "type": "address"
        },
        {
          "internalType": "string",
          "name": "name",
          "type": "string"
        },
        {
          "internalType": "uint256",
          "name": "userIndex",
          "type": "uint256"
        },
        {
          "internalType": "uint256",
          "name": "repoIndex",
          "type": "uint256"
        },
        {
          "internalType": "uint256",
          "name": "donations",
          "type": "uint256"
        },
        {
          "internalType": "bool",
          "name": "forked",
          "type": "bool"
        },
        {
          "internalType": "address",
          "name": "forkOrigin",
          "type": "address"
        }
      ],
      "stateMutability": "view",
      "type": "function"
    },
    {
      "inputs": [
        {
          "internalType": "uint256",
          "name": "_newRepoIndex",
          "type": "uint256"
        }
      ],
      "name": "updateRepoIndex",
      "outputs": [],
      "stateMutability": "nonpayable",
      "type": "function"
    },
    {
      "inputs": [
        {
          "internalType": "uint256",
          "name": "_newUserIndex",
          "type": "uint256"
        }
      ],
      "name": "updateUserIndex",
      "outputs": [],
      "stateMutability": "nonpayable",
      "type": "function"
    }
  ],
  "bytecode": "0x608060405234801561001057600080fd5b5061050b806100206000396000f3fe608060405234801561001057600080fd5b50600436106100415760003560e01c8063708da6f4146100465780639ea6036e14610074578063d035b559146100a2575b600080fd5b6100726004803603602081101561005c57600080fd5b810190808035906020019092919050505061019a565b005b6100a06004803603602081101561008a57600080fd5b810190808035906020019092919050505061025b565b005b6100aa61031c565b604051808973ffffffffffffffffffffffffffffffffffffffff1681526020018873ffffffffffffffffffffffffffffffffffffffff1681526020018060200187815260200186815260200185815260200184151581526020018373ffffffffffffffffffffffffffffffffffffffff168152602001828103825288818151815260200191508051906020019080838360005b8381101561015857808201518184015260208101905061013d565b50505050905090810190601f1680156101855780820380516001836020036101000a031916815260200191505b50995050505050505050505060405180910390f35b60006101a461047f565b90508060010160009054906101000a900473ffffffffffffffffffffffffffffffffffffffff1673ffffffffffffffffffffffffffffffffffffffff163373ffffffffffffffffffffffffffffffffffffffff161461024e576040517f08c379a00000000000000000000000000000000000000000000000000000000081526004018080602001828103825260298152602001806104ad6029913960400191505060405180910390fd5b8181600401819055505050565b600061026561047f565b90508060010160009054906101000a900473ffffffffffffffffffffffffffffffffffffffff1673ffffffffffffffffffffffffffffffffffffffff163373ffffffffffffffffffffffffffffffffffffffff161461030f576040517f08c379a00000000000000000000000000000000000000000000000000000000081526004018080602001828103825260298152602001806104ad6029913960400191505060405180910390fd5b8181600301819055505050565b600080606060008060008060008061033261047f565b90508060000160009054906101000a900473ffffffffffffffffffffffffffffffffffffffff168160010160009054906101000a900473ffffffffffffffffffffffffffffffffffffffff16826002018360030154846004015485600501548660060160009054906101000a900460ff168760060160019054906101000a900473ffffffffffffffffffffffffffffffffffffffff16858054600181600116156101000203166002900480601f01602080910402602001604051908101604052809291908181526020018280546001816001161561010002031660029004801561045d5780601f106104325761010080835404028352916020019161045d565b820191906000526020600020905b81548152906001019060200180831161044057829003601f168201915b5050505050955098509850985098509850985098509850509091929394959697565b6000807fcda474466355d557cbe45e4216caf1702767769836ab9be7c9c775dafc95a0b09050809150509056fe596f7520617265206e6f7420616c6c6f776420746f20706572666f726d207468697320616374696f6ea26469706673582212206e9680806222feaa69cb231ff825fecf2ef61b6e7f710e266daa2ba49d2a8b3064736f6c63430007060033",
  "linkReferences": {},
  "deployedLinkReferences": {}
}