{
  "_format": "hh-sol-artifact-1",
  "contractName": "GitFactory",
  "sourceName": "contracts/GitFactory.sol",
  "abi": [
    {
      "inputs": [
        {
          "internalType": "contract GitRepoContractRegistry",
          "name": "_gitRepoContractRegistry",
          "type": "address"
        },
        {
          "internalType": "contract GitFactoryContractRegistry",
          "name": "_gitFactoryContractRegistry",
          "type": "address"
        }
      ],
      "stateMutability": "nonpayable",
      "type": "constructor"
    },
    {
      "anonymous": false,
      "inputs": [
        {
          "indexed": true,
          "internalType": "address",
          "name": "previousOwner",
          "type": "address"
        },
        {
          "indexed": true,
          "internalType": "address",
          "name": "newOwner",
          "type": "address"
        }
      ],
      "name": "OwnershipTransferred",
      "type": "event"
    },
    {
      "stateMutability": "payable",
      "type": "fallback"
    },
    {
      "inputs": [],
      "name": "gitFactoryContractRegistry",
      "outputs": [
        {
          "internalType": "contract GitFactoryContractRegistry",
          "name": "",
          "type": "address"
        }
      ],
      "stateMutability": "view",
      "type": "function"
    },
    {
      "inputs": [],
      "name": "gitRepoContractRegistry",
      "outputs": [
        {
          "internalType": "contract GitRepoContractRegistry",
          "name": "",
          "type": "address"
        }
      ],
      "stateMutability": "view",
      "type": "function"
    },
    {
      "inputs": [],
      "name": "owner",
      "outputs": [
        {
          "internalType": "address",
          "name": "",
          "type": "address"
        }
      ],
      "stateMutability": "view",
      "type": "function"
    },
    {
      "inputs": [],
      "name": "renounceOwnership",
      "outputs": [],
      "stateMutability": "nonpayable",
      "type": "function"
    },
    {
      "inputs": [],
      "name": "tips",
      "outputs": [
        {
          "internalType": "uint256",
          "name": "",
          "type": "uint256"
        }
      ],
      "stateMutability": "view",
      "type": "function"
    },
    {
      "inputs": [
        {
          "internalType": "address",
          "name": "newOwner",
          "type": "address"
        }
      ],
      "name": "transferOwnership",
      "outputs": [],
      "stateMutability": "nonpayable",
      "type": "function"
    },
    {
      "stateMutability": "payable",
      "type": "receive"
    }
  ],
  "bytecode": "0x60806040523480156200001157600080fd5b5060405162000e3a38038062000e3a8339818101604052810190620000379190620002aa565b6000620000496200018760201b60201c565b9050806000806101000a81548173ffffffffffffffffffffffffffffffffffffffff021916908373ffffffffffffffffffffffffffffffffffffffff1602179055508073ffffffffffffffffffffffffffffffffffffffff16600073ffffffffffffffffffffffffffffffffffffffff167f8be0079c531659141344cd1fd0a4f28419497f9722a3daafe3b4186f6b6457e060405160405180910390a35081600260006101000a81548173ffffffffffffffffffffffffffffffffffffffff021916908373ffffffffffffffffffffffffffffffffffffffff16021790555080600360006101000a81548173ffffffffffffffffffffffffffffffffffffffff021916908373ffffffffffffffffffffffffffffffffffffffff1602179055506200017f336200018f60201b6200070d1760201c565b50506200037b565b600033905090565b6000620001a16200024f60201b60201c565b9050818160000160006101000a81548173ffffffffffffffffffffffffffffffffffffffff021916908373ffffffffffffffffffffffffffffffffffffffff160217905550600081600101819055508173ffffffffffffffffffffffffffffffffffffffff16600073ffffffffffffffffffffffffffffffffffffffff167f8be0079c531659141344cd1fd0a4f28419497f9722a3daafe3b4186f6b6457e060405160405180910390a35050565b6000807f0aaf4feba13b23178aaf47c0f216900c0d6876550676757cc865d88e1f1fcf1190508091505090565b6000815190506200028d8162000347565b92915050565b600081519050620002a48162000361565b92915050565b60008060408385031215620002be57600080fd5b6000620002ce8582860162000293565b9250506020620002e1858286016200027c565b9150509250929050565b6000620002f88262000327565b9050919050565b60006200030c82620002eb565b9050919050565b60006200032082620002eb565b9050919050565b600073ffffffffffffffffffffffffffffffffffffffff82169050919050565b6200035281620002ff565b81146200035e57600080fd5b50565b6200036c8162000313565b81146200037857600080fd5b50565b610aaf806200038b6000396000f3fe6080604052600436106100595760003560e01c80631a4e1e78146101e85780633caf0f1a14610213578063715018a61461023e5780638da5cb5b14610255578063b8fdb59014610280578063f2fde38b146102ab5761007f565b3661007f5760006100686102d4565b905034816001016000828254019250508190555050005b6000600360009054906101000a900473ffffffffffffffffffffffffffffffffffffffff1673ffffffffffffffffffffffffffffffffffffffff1663ce05bfc76000357fffffffff00000000000000000000000000000000000000000000000000000000166040518263ffffffff1660e01b815260040161010091906108ef565b60206040518083038186803b15801561011857600080fd5b505afa15801561012c573d6000803e3d6000fd5b505050506040513d601f19601f820116820180604052508101906101509190610820565b9050600073ffffffffffffffffffffffffffffffffffffffff168173ffffffffffffffffffffffffffffffffffffffff1614156101c2576040517f08c379a00000000000000000000000000000000000000000000000000000000081526004016101b990610940565b60405180910390fd5b3660008037600080366000845af43d6000803e80600081146101e3573d6000f35b3d6000fd5b3480156101f457600080fd5b506101fd610301565b60405161020a9190610960565b60405180910390f35b34801561021f57600080fd5b50610228610307565b6040516102359190610925565b60405180910390f35b34801561024a57600080fd5b5061025361032d565b005b34801561026157600080fd5b5061026a6104b3565b60405161027791906108d4565b60405180910390f35b34801561028c57600080fd5b506102956104dc565b6040516102a2919061090a565b60405180910390f35b3480156102b757600080fd5b506102d260048036038101906102cd91906107f7565b610502565b005b6000807f0aaf4feba13b23178aaf47c0f216900c0d6876550676757cc865d88e1f1fcf1190508091505090565b60015481565b600260009054906101000a900473ffffffffffffffffffffffffffffffffffffffff1681565b6103356107c5565b73ffffffffffffffffffffffffffffffffffffffff1660008054906101000a900473ffffffffffffffffffffffffffffffffffffffff1673ffffffffffffffffffffffffffffffffffffffff16146103f5576040517f08c379a00000000000000000000000000000000000000000000000000000000081526004018080602001828103825260208152602001807f4f776e61626c653a2063616c6c6572206973206e6f7420746865206f776e657281525060200191505060405180910390fd5b600073ffffffffffffffffffffffffffffffffffffffff1660008054906101000a900473ffffffffffffffffffffffffffffffffffffffff1673ffffffffffffffffffffffffffffffffffffffff167f8be0079c531659141344cd1fd0a4f28419497f9722a3daafe3b4186f6b6457e060405160405180910390a360008060006101000a81548173ffffffffffffffffffffffffffffffffffffffff021916908373ffffffffffffffffffffffffffffffffffffffff160217905550565b60008060009054906101000a900473ffffffffffffffffffffffffffffffffffffffff16905090565b600360009054906101000a900473ffffffffffffffffffffffffffffffffffffffff1681565b61050a6107c5565b73ffffffffffffffffffffffffffffffffffffffff1660008054906101000a900473ffffffffffffffffffffffffffffffffffffffff1673ffffffffffffffffffffffffffffffffffffffff16146105ca576040517f08c379a00000000000000000000000000000000000000000000000000000000081526004018080602001828103825260208152602001807f4f776e61626c653a2063616c6c6572206973206e6f7420746865206f776e657281525060200191505060405180910390fd5b600073ffffffffffffffffffffffffffffffffffffffff168173ffffffffffffffffffffffffffffffffffffffff161415610650576040517f08c379a0000000000000000000000000000000000000000000000000000000008152600401808060200182810382526026815260200180610a546026913960400191505060405180910390fd5b8073ffffffffffffffffffffffffffffffffffffffff1660008054906101000a900473ffffffffffffffffffffffffffffffffffffffff1673ffffffffffffffffffffffffffffffffffffffff167f8be0079c531659141344cd1fd0a4f28419497f9722a3daafe3b4186f6b6457e060405160405180910390a3806000806101000a81548173ffffffffffffffffffffffffffffffffffffffff021916908373ffffffffffffffffffffffffffffffffffffffff16021790555050565b60006107176102d4565b9050818160000160006101000a81548173ffffffffffffffffffffffffffffffffffffffff021916908373ffffffffffffffffffffffffffffffffffffffff160217905550600081600101819055508173ffffffffffffffffffffffffffffffffffffffff16600073ffffffffffffffffffffffffffffffffffffffff167f8be0079c531659141344cd1fd0a4f28419497f9722a3daafe3b4186f6b6457e060405160405180910390a35050565b600033905090565b6000813590506107dc81610a3c565b92915050565b6000815190506107f181610a3c565b92915050565b60006020828403121561080957600080fd5b6000610817848285016107cd565b91505092915050565b60006020828403121561083257600080fd5b6000610840848285016107e2565b91505092915050565b6108528161098c565b82525050565b6108618161099e565b82525050565b610870816109f4565b82525050565b61087f81610a18565b82525050565b600061089260208361097b565b91507f4469616d6f6e643a2046756e6374696f6e20646f6573206e6f742065786973746000830152602082019050919050565b6108ce816109ea565b82525050565b60006020820190506108e96000830184610849565b92915050565b60006020820190506109046000830184610858565b92915050565b600060208201905061091f6000830184610867565b92915050565b600060208201905061093a6000830184610876565b92915050565b6000602082019050818103600083015261095981610885565b9050919050565b600060208201905061097560008301846108c5565b92915050565b600082825260208201905092915050565b6000610997826109ca565b9050919050565b60007fffffffff0000000000000000000000000000000000000000000000000000000082169050919050565b600073ffffffffffffffffffffffffffffffffffffffff82169050919050565b6000819050919050565b60006109ff82610a06565b9050919050565b6000610a11826109ca565b9050919050565b6000610a2382610a2a565b9050919050565b6000610a35826109ca565b9050919050565b610a458161098c565b8114610a5057600080fd5b5056fe4f776e61626c653a206e6577206f776e657220697320746865207a65726f2061646472657373a26469706673582212206aed44e9ab43ab2e730f2df40f054ed886de9b6afcf03ce5f324e26c2f01964464736f6c63430007060033",
  "linkReferences": {},
  "deployedLinkReferences": {}
}